{
  "contractName": "Arcade_1",
  "abi": [
    {
      "inputs": [],
      "stateMutability": "nonpayable",
      "type": "constructor"
    },
    {
      "anonymous": false,
      "inputs": [
        {
          "indexed": true,
          "internalType": "address",
          "name": "owner",
          "type": "address"
        },
        {
          "indexed": true,
          "internalType": "address",
          "name": "approved",
          "type": "address"
        },
        {
          "indexed": true,
          "internalType": "uint256",
          "name": "tokenId",
          "type": "uint256"
        }
      ],
      "name": "Approval",
      "type": "event"
    },
    {
      "anonymous": false,
      "inputs": [
        {
          "indexed": true,
          "internalType": "address",
          "name": "owner",
          "type": "address"
        },
        {
          "indexed": true,
          "internalType": "address",
          "name": "operator",
          "type": "address"
        },
        {
          "indexed": false,
          "internalType": "bool",
          "name": "approved",
          "type": "bool"
        }
      ],
      "name": "ApprovalForAll",
      "type": "event"
    },
    {
      "anonymous": false,
      "inputs": [
        {
          "indexed": true,
          "internalType": "address",
          "name": "from",
          "type": "address"
        },
        {
          "indexed": true,
          "internalType": "address",
          "name": "to",
          "type": "address"
        },
        {
          "indexed": true,
          "internalType": "uint256",
          "name": "tokenId",
          "type": "uint256"
        }
      ],
      "name": "Transfer",
      "type": "event"
    },
    {
      "inputs": [
        {
          "internalType": "address",
          "name": "to",
          "type": "address"
        },
        {
          "internalType": "uint256",
          "name": "tokenId",
          "type": "uint256"
        }
      ],
      "name": "approve",
      "outputs": [],
      "stateMutability": "nonpayable",
      "type": "function"
    },
    {
      "inputs": [
        {
          "internalType": "address",
          "name": "owner",
          "type": "address"
        }
      ],
      "name": "balanceOf",
      "outputs": [
        {
          "internalType": "uint256",
          "name": "",
          "type": "uint256"
        }
      ],
      "stateMutability": "view",
      "type": "function"
    },
    {
      "inputs": [
        {
          "internalType": "uint256",
          "name": "tokenId",
          "type": "uint256"
        }
      ],
      "name": "getApproved",
      "outputs": [
        {
          "internalType": "address",
          "name": "",
          "type": "address"
        }
      ],
      "stateMutability": "view",
      "type": "function"
    },
    {
      "inputs": [
        {
          "internalType": "address",
          "name": "owner",
          "type": "address"
        },
        {
          "internalType": "address",
          "name": "operator",
          "type": "address"
        }
      ],
      "name": "isApprovedForAll",
      "outputs": [
        {
          "internalType": "bool",
          "name": "",
          "type": "bool"
        }
      ],
      "stateMutability": "view",
      "type": "function"
    },
    {
      "inputs": [],
      "name": "name",
      "outputs": [
        {
          "internalType": "string",
          "name": "",
          "type": "string"
        }
      ],
      "stateMutability": "view",
      "type": "function"
    },
    {
      "inputs": [
        {
          "internalType": "uint256",
          "name": "tokenId",
          "type": "uint256"
        }
      ],
      "name": "ownerOf",
      "outputs": [
        {
          "internalType": "address",
          "name": "",
          "type": "address"
        }
      ],
      "stateMutability": "view",
      "type": "function"
    },
    {
      "inputs": [
        {
          "internalType": "address",
          "name": "from",
          "type": "address"
        },
        {
          "internalType": "address",
          "name": "to",
          "type": "address"
        },
        {
          "internalType": "uint256",
          "name": "tokenId",
          "type": "uint256"
        }
      ],
      "name": "safeTransferFrom",
      "outputs": [],
      "stateMutability": "nonpayable",
      "type": "function"
    },
    {
      "inputs": [
        {
          "internalType": "address",
          "name": "from",
          "type": "address"
        },
        {
          "internalType": "address",
          "name": "to",
          "type": "address"
        },
        {
          "internalType": "uint256",
          "name": "tokenId",
          "type": "uint256"
        },
        {
          "internalType": "bytes",
          "name": "_data",
          "type": "bytes"
        }
      ],
      "name": "safeTransferFrom",
      "outputs": [],
      "stateMutability": "nonpayable",
      "type": "function"
    },
    {
      "inputs": [
        {
          "internalType": "address",
          "name": "operator",
          "type": "address"
        },
        {
          "internalType": "bool",
          "name": "approved",
          "type": "bool"
        }
      ],
      "name": "setApprovalForAll",
      "outputs": [],
      "stateMutability": "nonpayable",
      "type": "function"
    },
    {
      "inputs": [],
      "name": "symbol",
      "outputs": [
        {
          "internalType": "string",
          "name": "",
          "type": "string"
        }
      ],
      "stateMutability": "view",
      "type": "function"
    },
    {
      "inputs": [
        {
          "internalType": "uint256",
          "name": "index",
          "type": "uint256"
        }
      ],
      "name": "tokenByIndex",
      "outputs": [
        {
          "internalType": "uint256",
          "name": "",
          "type": "uint256"
        }
      ],
      "stateMutability": "view",
      "type": "function"
    },
    {
      "inputs": [
        {
          "internalType": "address",
          "name": "owner",
          "type": "address"
        },
        {
          "internalType": "uint256",
          "name": "index",
          "type": "uint256"
        }
      ],
      "name": "tokenOfOwnerByIndex",
      "outputs": [
        {
          "internalType": "uint256",
          "name": "",
          "type": "uint256"
        }
      ],
      "stateMutability": "view",
      "type": "function"
    },
    {
      "inputs": [],
      "name": "totalSupply",
      "outputs": [
        {
          "internalType": "uint256",
          "name": "",
          "type": "uint256"
        }
      ],
      "stateMutability": "view",
      "type": "function"
    },
    {
      "inputs": [
        {
          "internalType": "address",
          "name": "from",
          "type": "address"
        },
        {
          "internalType": "address",
          "name": "to",
          "type": "address"
        },
        {
          "internalType": "uint256",
          "name": "tokenId",
          "type": "uint256"
        }
      ],
      "name": "transferFrom",
      "outputs": [],
      "stateMutability": "nonpayable",
      "type": "function"
    },
    {
      "inputs": [
        {
          "internalType": "uint256",
          "name": "tokenId",
          "type": "uint256"
        }
      ],
      "name": "tokenURI",
      "outputs": [
        {
          "internalType": "string",
          "name": "",
          "type": "string"
        }
      ],
      "stateMutability": "view",
      "type": "function"
    },
    {
      "inputs": [
        {
          "internalType": "bytes4",
          "name": "interfaceId",
          "type": "bytes4"
        }
      ],
      "name": "supportsInterface",
      "outputs": [
        {
          "internalType": "bool",
          "name": "",
          "type": "bool"
        }
      ],
      "stateMutability": "view",
      "type": "function"
    },
    {
      "inputs": [
        {
          "internalType": "address",
          "name": "account",
          "type": "address"
        },
        {
          "internalType": "uint256",
          "name": "tokenId",
          "type": "uint256"
        }
      ],
      "name": "mint",
      "outputs": [],
      "stateMutability": "nonpayable",
      "type": "function"
    },
    {
      "inputs": [
        {
          "internalType": "uint256",
          "name": "tokenId",
          "type": "uint256"
        },
        {
          "internalType": "string",
          "name": "inputTokenURI",
          "type": "string"
        }
      ],
      "name": "setTokenURI",
      "outputs": [],
      "stateMutability": "nonpayable",
      "type": "function"
    },
    {
      "inputs": [
        {
          "internalType": "string",
          "name": "baseURI_",
          "type": "string"
        }
      ],
      "name": "setBaseURI",
      "outputs": [],
      "stateMutability": "nonpayable",
      "type": "function"
    },
    {
      "inputs": [
        {
          "internalType": "uint256",
          "name": "tokenId",
          "type": "uint256"
        }
      ],
      "name": "burn",
      "outputs": [],
      "stateMutability": "nonpayable",
      "type": "function"
    }
  ],
  "bytecode": "0x60806040523480156200001157600080fd5b506040518060400160405280600881526020017f4172636164655f310000000000000000000000000000000000000000000000008152506040518060400160405280600681526020017f4152434144450000000000000000000000000000000000000000000000000000815250816000908051906020019062000096929190620000b8565b508060019080519060200190620000af929190620000b8565b505050620001cd565b828054620000c69062000168565b90600052602060002090601f016020900481019282620000ea576000855562000136565b82601f106200010557805160ff191683800117855562000136565b8280016001018555821562000136579182015b828111156200013557825182559160200191906001019062000118565b5b50905062000145919062000149565b5090565b5b80821115620001645760008160009055506001016200014a565b5090565b600060028204905060018216806200018157607f821691505b602082108114156200019857620001976200019e565b5b50919050565b7f4e487b7100000000000000000000000000000000000000000000000000000000600052602260045260246000fd5b61366580620001dd6000396000f3fe608060405234801561001057600080fd5b506004361061012c5760003560e01c806342966c68116100ad57806395d89b411161007157806395d89b4114610351578063a22cb4651461036f578063b88d4fde1461038b578063c87b56dd146103a7578063e985e9c5146103d75761012c565b806342966c68146102895780634f6ccce7146102a557806355f804b3146102d55780636352211e146102f157806370a08231146103215761012c565b806318160ddd116100f457806318160ddd146101e757806323b872dd146102055780632f745c591461022157806340c10f191461025157806342842e0e1461026d5761012c565b806301ffc9a71461013157806306fdde0314610161578063081812fc1461017f578063095ea7b3146101af578063162094c4146101cb575b600080fd5b61014b60048036038101906101469190612559565b610407565b6040516101589190612a3a565b60405180910390f35b610169610419565b6040516101769190612a55565b60405180910390f35b610199600480360381019061019491906125ec565b6104ab565b6040516101a691906129d3565b60405180910390f35b6101c960048036038101906101c4919061251d565b610530565b005b6101e560048036038101906101e09190612615565b610648565b005b6101ef610656565b6040516101fc9190612cb7565b60405180910390f35b61021f600480360381019061021a9190612417565b610663565b005b61023b6004803603810190610236919061251d565b6106c3565b6040516102489190612cb7565b60405180910390f35b61026b6004803603810190610266919061251d565b610768565b005b61028760048036038101906102829190612417565b610776565b005b6102a3600480360381019061029e91906125ec565b610796565b005b6102bf60048036038101906102ba91906125ec565b6107a2565b6040516102cc9190612cb7565b60405180910390f35b6102ef60048036038101906102ea91906125ab565b610839565b005b61030b600480360381019061030691906125ec565b610853565b60405161031891906129d3565b60405180910390f35b61033b600480360381019061033691906123b2565b610905565b6040516103489190612cb7565b60405180910390f35b6103596109bd565b6040516103669190612a55565b60405180910390f35b610389600480360381019061038491906124e1565b610a4f565b005b6103a560048036038101906103a09190612466565b610bd0565b005b6103c160048036038101906103bc91906125ec565b610c32565b6040516103ce9190612a55565b60405180910390f35b6103f160048036038101906103ec91906123db565b610c44565b6040516103fe9190612a3a565b60405180910390f35b600061041282610cd8565b9050919050565b60606000805461042890612f0d565b80601f016020809104026020016040519081016040528092919081815260200182805461045490612f0d565b80156104a15780601f10610476576101008083540402835291602001916104a1565b820191906000526020600020905b81548152906001019060200180831161048457829003601f168201915b5050505050905090565b60006104b682610d52565b6104f5576040517f08c379a00000000000000000000000000000000000000000000000000000000081526004016104ec90612bf7565b60405180910390fd5b6004600083815260200190815260200160002060009054906101000a900473ffffffffffffffffffffffffffffffffffffffff169050919050565b600061053b82610853565b90508073ffffffffffffffffffffffffffffffffffffffff168373ffffffffffffffffffffffffffffffffffffffff1614156105ac576040517f08c379a00000000000000000000000000000000000000000000000000000000081526004016105a390612c57565b60405180910390fd5b8073ffffffffffffffffffffffffffffffffffffffff166105cb610dbe565b73ffffffffffffffffffffffffffffffffffffffff1614806105fa57506105f9816105f4610dbe565b610c44565b5b610639576040517f08c379a000000000000000000000000000000000000000000000000000000000815260040161063090612b37565b60405180910390fd5b6106438383610dc6565b505050565b6106528282610e7f565b5050565b6000600980549050905090565b61067461066e610dbe565b82610ef3565b6106b3576040517f08c379a00000000000000000000000000000000000000000000000000000000081526004016106aa90612c77565b60405180910390fd5b6106be838383610fd1565b505050565b60006106ce83610905565b821061070f576040517f08c379a000000000000000000000000000000000000000000000000000000000815260040161070690612a77565b60405180910390fd5b600760008473ffffffffffffffffffffffffffffffffffffffff1673ffffffffffffffffffffffffffffffffffffffff168152602001908152602001600020600083815260200190815260200160002054905092915050565b610772828261122d565b5050565b61079183838360405180602001604052806000815250610bd0565b505050565b61079f816113fb565b50565b60006107ac610656565b82106107ed576040517f08c379a00000000000000000000000000000000000000000000000000000000081526004016107e490612c97565b60405180910390fd5b60098281548110610827577f4e487b7100000000000000000000000000000000000000000000000000000000600052603260045260246000fd5b90600052602060002001549050919050565b80600b908051906020019061084f929190612196565b5050565b6000806002600084815260200190815260200160002060009054906101000a900473ffffffffffffffffffffffffffffffffffffffff169050600073ffffffffffffffffffffffffffffffffffffffff168173ffffffffffffffffffffffffffffffffffffffff1614156108fc576040517f08c379a00000000000000000000000000000000000000000000000000000000081526004016108f390612b77565b60405180910390fd5b80915050919050565b60008073ffffffffffffffffffffffffffffffffffffffff168273ffffffffffffffffffffffffffffffffffffffff161415610976576040517f08c379a000000000000000000000000000000000000000000000000000000000815260040161096d90612b57565b60405180910390fd5b600360008373ffffffffffffffffffffffffffffffffffffffff1673ffffffffffffffffffffffffffffffffffffffff168152602001908152602001600020549050919050565b6060600180546109cc90612f0d565b80601f01602080910402602001604051908101604052809291908181526020018280546109f890612f0d565b8015610a455780601f10610a1a57610100808354040283529160200191610a45565b820191906000526020600020905b815481529060010190602001808311610a2857829003601f168201915b5050505050905090565b610a57610dbe565b73ffffffffffffffffffffffffffffffffffffffff168273ffffffffffffffffffffffffffffffffffffffff161415610ac5576040517f08c379a0000000000000000000000000000000000000000000000000000000008152600401610abc90612af7565b60405180910390fd5b8060056000610ad2610dbe565b73ffffffffffffffffffffffffffffffffffffffff1673ffffffffffffffffffffffffffffffffffffffff16815260200190815260200160002060008473ffffffffffffffffffffffffffffffffffffffff1673ffffffffffffffffffffffffffffffffffffffff16815260200190815260200160002060006101000a81548160ff0219169083151502179055508173ffffffffffffffffffffffffffffffffffffffff16610b7f610dbe565b73ffffffffffffffffffffffffffffffffffffffff167f17307eab39ab6107e8899845ad3d59bd9653f200f220920489ca2b5937696c3183604051610bc49190612a3a565b60405180910390a35050565b610be1610bdb610dbe565b83610ef3565b610c20576040517f08c379a0000000000000000000000000000000000000000000000000000000008152600401610c1790612c77565b60405180910390fd5b610c2c84848484611407565b50505050565b6060610c3d82611463565b9050919050565b6000600560008473ffffffffffffffffffffffffffffffffffffffff1673ffffffffffffffffffffffffffffffffffffffff16815260200190815260200160002060008373ffffffffffffffffffffffffffffffffffffffff1673ffffffffffffffffffffffffffffffffffffffff16815260200190815260200160002060009054906101000a900460ff16905092915050565b60007f780e9d63000000000000000000000000000000000000000000000000000000007bffffffffffffffffffffffffffffffffffffffffffffffffffffffff1916827bffffffffffffffffffffffffffffffffffffffffffffffffffffffff19161480610d4b5750610d4a826115b5565b5b9050919050565b60008073ffffffffffffffffffffffffffffffffffffffff166002600084815260200190815260200160002060009054906101000a900473ffffffffffffffffffffffffffffffffffffffff1673ffffffffffffffffffffffffffffffffffffffff1614159050919050565b600033905090565b816004600083815260200190815260200160002060006101000a81548173ffffffffffffffffffffffffffffffffffffffff021916908373ffffffffffffffffffffffffffffffffffffffff160217905550808273ffffffffffffffffffffffffffffffffffffffff16610e3983610853565b73ffffffffffffffffffffffffffffffffffffffff167f8c5be1e5ebec7d5bd14f71427d1e84f3dd0314c0f7b2291e5b200ac8c7c3b92560405160405180910390a45050565b610e8882610d52565b610ec7576040517f08c379a0000000000000000000000000000000000000000000000000000000008152600401610ebe90612b97565b60405180910390fd5b80600660008481526020019081526020016000209080519060200190610eee929190612196565b505050565b6000610efe82610d52565b610f3d576040517f08c379a0000000000000000000000000000000000000000000000000000000008152600401610f3490612b17565b60405180910390fd5b6000610f4883610853565b90508073ffffffffffffffffffffffffffffffffffffffff168473ffffffffffffffffffffffffffffffffffffffff161480610fb757508373ffffffffffffffffffffffffffffffffffffffff16610f9f846104ab565b73ffffffffffffffffffffffffffffffffffffffff16145b80610fc85750610fc78185610c44565b5b91505092915050565b8273ffffffffffffffffffffffffffffffffffffffff16610ff182610853565b73ffffffffffffffffffffffffffffffffffffffff1614611047576040517f08c379a000000000000000000000000000000000000000000000000000000000815260040161103e90612c17565b60405180910390fd5b600073ffffffffffffffffffffffffffffffffffffffff168273ffffffffffffffffffffffffffffffffffffffff1614156110b7576040517f08c379a00000000000000000000000000000000000000000000000000000000081526004016110ae90612ad7565b60405180910390fd5b6110c2838383611697565b6110cd600082610dc6565b6001600360008573ffffffffffffffffffffffffffffffffffffffff1673ffffffffffffffffffffffffffffffffffffffff168152602001908152602001600020600082825461111d9190612e23565b925050819055506001600360008473ffffffffffffffffffffffffffffffffffffffff1673ffffffffffffffffffffffffffffffffffffffff16815260200190815260200160002060008282546111749190612d9c565b92505081905550816002600083815260200190815260200160002060006101000a81548173ffffffffffffffffffffffffffffffffffffffff021916908373ffffffffffffffffffffffffffffffffffffffff160217905550808273ffffffffffffffffffffffffffffffffffffffff168473ffffffffffffffffffffffffffffffffffffffff167fddf252ad1be2c89b69c2b068fc378daa952ba7f163c4a11628f55a4df523b3ef60405160405180910390a4505050565b600073ffffffffffffffffffffffffffffffffffffffff168273ffffffffffffffffffffffffffffffffffffffff16141561129d576040517f08c379a000000000000000000000000000000000000000000000000000000000815260040161129490612bb7565b60405180910390fd5b6112a681610d52565b156112e6576040517f08c379a00000000000000000000000000000000000000000000000000000000081526004016112dd90612ab7565b60405180910390fd5b6112f260008383611697565b6001600360008473ffffffffffffffffffffffffffffffffffffffff1673ffffffffffffffffffffffffffffffffffffffff16815260200190815260200160002060008282546113429190612d9c565b92505081905550816002600083815260200190815260200160002060006101000a81548173ffffffffffffffffffffffffffffffffffffffff021916908373ffffffffffffffffffffffffffffffffffffffff160217905550808273ffffffffffffffffffffffffffffffffffffffff16600073ffffffffffffffffffffffffffffffffffffffff167fddf252ad1be2c89b69c2b068fc378daa952ba7f163c4a11628f55a4df523b3ef60405160405180910390a45050565b611404816116a7565b50565b611412848484610fd1565b61141e848484846116fa565b61145d576040517f08c379a000000000000000000000000000000000000000000000000000000000815260040161145490612a97565b60405180910390fd5b50505050565b606061146e82610d52565b6114ad576040517f08c379a00000000000000000000000000000000000000000000000000000000081526004016114a490612bd7565b60405180910390fd5b60006006600084815260200190815260200160002080546114cd90612f0d565b80601f01602080910402602001604051908101604052809291908181526020018280546114f990612f0d565b80156115465780601f1061151b57610100808354040283529160200191611546565b820191906000526020600020905b81548152906001019060200180831161152957829003601f168201915b505050505090506000611557611891565b905060008151141561156d5781925050506115b0565b6000825111156115a257808260405160200161158a9291906129af565b604051602081830303815290604052925050506115b0565b6115ab84611923565b925050505b919050565b60007f80ac58cd000000000000000000000000000000000000000000000000000000007bffffffffffffffffffffffffffffffffffffffffffffffffffffffff1916827bffffffffffffffffffffffffffffffffffffffffffffffffffffffff1916148061168057507f5b5e139f000000000000000000000000000000000000000000000000000000007bffffffffffffffffffffffffffffffffffffffffffffffffffffffff1916827bffffffffffffffffffffffffffffffffffffffffffffffffffffffff1916145b80611690575061168f826119ca565b5b9050919050565b6116a2838383611a34565b505050565b6116b081611b48565b60006006600083815260200190815260200160002080546116d090612f0d565b9050146116f7576006600082815260200190815260200160002060006116f6919061221c565b5b50565b600061171b8473ffffffffffffffffffffffffffffffffffffffff16611c59565b15611884578373ffffffffffffffffffffffffffffffffffffffff1663150b7a02611744610dbe565b8786866040518563ffffffff1660e01b815260040161176694939291906129ee565b602060405180830381600087803b15801561178057600080fd5b505af19250505080156117b157506040513d601f19601f820116820180604052508101906117ae9190612582565b60015b611834573d80600081146117e1576040519150601f19603f3d011682016040523d82523d6000602084013e6117e6565b606091505b5060008151141561182c576040517f08c379a000000000000000000000000000000000000000000000000000000000815260040161182390612a97565b60405180910390fd5b805181602001fd5b63150b7a0260e01b7bffffffffffffffffffffffffffffffffffffffffffffffffffffffff1916817bffffffffffffffffffffffffffffffffffffffffffffffffffffffff191614915050611889565b600190505b949350505050565b6060600b80546118a090612f0d565b80601f01602080910402602001604051908101604052809291908181526020018280546118cc90612f0d565b80156119195780601f106118ee57610100808354040283529160200191611919565b820191906000526020600020905b8154815290600101906020018083116118fc57829003601f168201915b5050505050905090565b606061192e82610d52565b61196d576040517f08c379a000000000000000000000000000000000000000000000000000000000815260040161196490612c37565b60405180910390fd5b6000611977611891565b9050600081511161199757604051806020016040528060008152506119c2565b806119a184611c6c565b6040516020016119b29291906129af565b6040516020818303038152906040525b915050919050565b60007f01ffc9a7000000000000000000000000000000000000000000000000000000007bffffffffffffffffffffffffffffffffffffffffffffffffffffffff1916827bffffffffffffffffffffffffffffffffffffffffffffffffffffffff1916149050919050565b611a3f838383611e19565b600073ffffffffffffffffffffffffffffffffffffffff168373ffffffffffffffffffffffffffffffffffffffff161415611a8257611a7d81611e1e565b611ac1565b8173ffffffffffffffffffffffffffffffffffffffff168373ffffffffffffffffffffffffffffffffffffffff1614611ac057611abf8382611e67565b5b5b600073ffffffffffffffffffffffffffffffffffffffff168273ffffffffffffffffffffffffffffffffffffffff161415611b0457611aff81611fd4565b611b43565b8273ffffffffffffffffffffffffffffffffffffffff168273ffffffffffffffffffffffffffffffffffffffff1614611b4257611b418282612117565b5b5b505050565b6000611b5382610853565b9050611b6181600084611697565b611b6c600083610dc6565b6001600360008373ffffffffffffffffffffffffffffffffffffffff1673ffffffffffffffffffffffffffffffffffffffff1681526020019081526020016000206000828254611bbc9190612e23565b925050819055506002600083815260200190815260200160002060006101000a81549073ffffffffffffffffffffffffffffffffffffffff021916905581600073ffffffffffffffffffffffffffffffffffffffff168273ffffffffffffffffffffffffffffffffffffffff167fddf252ad1be2c89b69c2b068fc378daa952ba7f163c4a11628f55a4df523b3ef60405160405180910390a45050565b600080823b905060008111915050919050565b60606000821415611cb4576040518060400160405280600181526020017f30000000000000000000000000000000000000000000000000000000000000008152509050611e14565b600082905060005b60008214611ce6578080611ccf90612f70565b915050600a82611cdf9190612df2565b9150611cbc565b60008167ffffffffffffffff811115611d28577f4e487b7100000000000000000000000000000000000000000000000000000000600052604160045260246000fd5b6040519080825280601f01601f191660200182016040528015611d5a5781602001600182028036833780820191505090505b5090505b60008514611e0d57600182611d739190612e23565b9150600a85611d829190612fb9565b6030611d8e9190612d9c565b60f81b818381518110611dca577f4e487b7100000000000000000000000000000000000000000000000000000000600052603260045260246000fd5b60200101907effffffffffffffffffffffffffffffffffffffffffffffffffffffffffffff1916908160001a905350600a85611e069190612df2565b9450611d5e565b8093505050505b919050565b505050565b600980549050600a600083815260200190815260200160002081905550600981908060018154018082558091505060019003906000526020600020016000909190919091505550565b60006001611e7484610905565b611e7e9190612e23565b9050600060086000848152602001908152602001600020549050818114611f63576000600760008673ffffffffffffffffffffffffffffffffffffffff1673ffffffffffffffffffffffffffffffffffffffff168152602001908152602001600020600084815260200190815260200160002054905080600760008773ffffffffffffffffffffffffffffffffffffffff1673ffffffffffffffffffffffffffffffffffffffff168152602001908152602001600020600084815260200190815260200160002081905550816008600083815260200190815260200160002081905550505b6008600084815260200190815260200160002060009055600760008573ffffffffffffffffffffffffffffffffffffffff1673ffffffffffffffffffffffffffffffffffffffff16815260200190815260200160002060008381526020019081526020016000206000905550505050565b60006001600980549050611fe89190612e23565b90506000600a600084815260200190815260200160002054905060006009838154811061203e577f4e487b7100000000000000000000000000000000000000000000000000000000600052603260045260246000fd5b906000526020600020015490508060098381548110612086577f4e487b7100000000000000000000000000000000000000000000000000000000600052603260045260246000fd5b906000526020600020018190555081600a600083815260200190815260200160002081905550600a60008581526020019081526020016000206000905560098054806120fb577f4e487b7100000000000000000000000000000000000000000000000000000000600052603160045260246000fd5b6001900381819060005260206000200160009055905550505050565b600061212283610905565b905081600760008573ffffffffffffffffffffffffffffffffffffffff1673ffffffffffffffffffffffffffffffffffffffff168152602001908152602001600020600083815260200190815260200160002081905550806008600084815260200190815260200160002081905550505050565b8280546121a290612f0d565b90600052602060002090601f0160209004810192826121c4576000855561220b565b82601f106121dd57805160ff191683800117855561220b565b8280016001018555821561220b579182015b8281111561220a5782518255916020019190600101906121ef565b5b509050612218919061225c565b5090565b50805461222890612f0d565b6000825580601f1061223a5750612259565b601f016020900490600052602060002090810190612258919061225c565b5b50565b5b8082111561227557600081600090555060010161225d565b5090565b600061228c61228784612cf7565b612cd2565b9050828152602081018484840111156122a457600080fd5b6122af848285612ecb565b509392505050565b60006122ca6122c584612d28565b612cd2565b9050828152602081018484840111156122e257600080fd5b6122ed848285612ecb565b509392505050565b600081359050612304816135d3565b92915050565b600081359050612319816135ea565b92915050565b60008135905061232e81613601565b92915050565b60008151905061234381613601565b92915050565b600082601f83011261235a57600080fd5b813561236a848260208601612279565b91505092915050565b600082601f83011261238457600080fd5b81356123948482602086016122b7565b91505092915050565b6000813590506123ac81613618565b92915050565b6000602082840312156123c457600080fd5b60006123d2848285016122f5565b91505092915050565b600080604083850312156123ee57600080fd5b60006123fc858286016122f5565b925050602061240d858286016122f5565b9150509250929050565b60008060006060848603121561242c57600080fd5b600061243a868287016122f5565b935050602061244b868287016122f5565b925050604061245c8682870161239d565b9150509250925092565b6000806000806080858703121561247c57600080fd5b600061248a878288016122f5565b945050602061249b878288016122f5565b93505060406124ac8782880161239d565b925050606085013567ffffffffffffffff8111156124c957600080fd5b6124d587828801612349565b91505092959194509250565b600080604083850312156124f457600080fd5b6000612502858286016122f5565b92505060206125138582860161230a565b9150509250929050565b6000806040838503121561253057600080fd5b600061253e858286016122f5565b925050602061254f8582860161239d565b9150509250929050565b60006020828403121561256b57600080fd5b60006125798482850161231f565b91505092915050565b60006020828403121561259457600080fd5b60006125a284828501612334565b91505092915050565b6000602082840312156125bd57600080fd5b600082013567ffffffffffffffff8111156125d757600080fd5b6125e384828501612373565b91505092915050565b6000602082840312156125fe57600080fd5b600061260c8482850161239d565b91505092915050565b6000806040838503121561262857600080fd5b60006126368582860161239d565b925050602083013567ffffffffffffffff81111561265357600080fd5b61265f85828601612373565b9150509250929050565b61267281612e57565b82525050565b61268181612e69565b82525050565b600061269282612d59565b61269c8185612d6f565b93506126ac818560208601612eda565b6126b5816130a6565b840191505092915050565b60006126cb82612d64565b6126d58185612d80565b93506126e5818560208601612eda565b6126ee816130a6565b840191505092915050565b600061270482612d64565b61270e8185612d91565b935061271e818560208601612eda565b80840191505092915050565b6000612737602b83612d80565b9150612742826130b7565b604082019050919050565b600061275a603283612d80565b915061276582613106565b604082019050919050565b600061277d601c83612d80565b915061278882613155565b602082019050919050565b60006127a0602483612d80565b91506127ab8261317e565b604082019050919050565b60006127c3601983612d80565b91506127ce826131cd565b602082019050919050565b60006127e6602c83612d80565b91506127f1826131f6565b604082019050919050565b6000612809603883612d80565b915061281482613245565b604082019050919050565b600061282c602a83612d80565b915061283782613294565b604082019050919050565b600061284f602983612d80565b915061285a826132e3565b604082019050919050565b6000612872602e83612d80565b915061287d82613332565b604082019050919050565b6000612895602083612d80565b91506128a082613381565b602082019050919050565b60006128b8603183612d80565b91506128c3826133aa565b604082019050919050565b60006128db602c83612d80565b91506128e6826133f9565b604082019050919050565b60006128fe602983612d80565b915061290982613448565b604082019050919050565b6000612921602f83612d80565b915061292c82613497565b604082019050919050565b6000612944602183612d80565b915061294f826134e6565b604082019050919050565b6000612967603183612d80565b915061297282613535565b604082019050919050565b600061298a602c83612d80565b915061299582613584565b604082019050919050565b6129a981612ec1565b82525050565b60006129bb82856126f9565b91506129c782846126f9565b91508190509392505050565b60006020820190506129e86000830184612669565b92915050565b6000608082019050612a036000830187612669565b612a106020830186612669565b612a1d60408301856129a0565b8181036060830152612a2f8184612687565b905095945050505050565b6000602082019050612a4f6000830184612678565b92915050565b60006020820190508181036000830152612a6f81846126c0565b905092915050565b60006020820190508181036000830152612a908161272a565b9050919050565b60006020820190508181036000830152612ab08161274d565b9050919050565b60006020820190508181036000830152612ad081612770565b9050919050565b60006020820190508181036000830152612af081612793565b9050919050565b60006020820190508181036000830152612b10816127b6565b9050919050565b60006020820190508181036000830152612b30816127d9565b9050919050565b60006020820190508181036000830152612b50816127fc565b9050919050565b60006020820190508181036000830152612b708161281f565b9050919050565b60006020820190508181036000830152612b9081612842565b9050919050565b60006020820190508181036000830152612bb081612865565b9050919050565b60006020820190508181036000830152612bd081612888565b9050919050565b60006020820190508181036000830152612bf0816128ab565b9050919050565b60006020820190508181036000830152612c10816128ce565b9050919050565b60006020820190508181036000830152612c30816128f1565b9050919050565b60006020820190508181036000830152612c5081612914565b9050919050565b60006020820190508181036000830152612c7081612937565b9050919050565b60006020820190508181036000830152612c908161295a565b9050919050565b60006020820190508181036000830152612cb08161297d565b9050919050565b6000602082019050612ccc60008301846129a0565b92915050565b6000612cdc612ced565b9050612ce88282612f3f565b919050565b6000604051905090565b600067ffffffffffffffff821115612d1257612d11613077565b5b612d1b826130a6565b9050602081019050919050565b600067ffffffffffffffff821115612d4357612d42613077565b5b612d4c826130a6565b9050602081019050919050565b600081519050919050565b600081519050919050565b600082825260208201905092915050565b600082825260208201905092915050565b600081905092915050565b6000612da782612ec1565b9150612db283612ec1565b9250827fffffffffffffffffffffffffffffffffffffffffffffffffffffffffffffffff03821115612de757612de6612fea565b5b828201905092915050565b6000612dfd82612ec1565b9150612e0883612ec1565b925082612e1857612e17613019565b5b828204905092915050565b6000612e2e82612ec1565b9150612e3983612ec1565b925082821015612e4c57612e4b612fea565b5b828203905092915050565b6000612e6282612ea1565b9050919050565b60008115159050919050565b60007fffffffff0000000000000000000000000000000000000000000000000000000082169050919050565b600073ffffffffffffffffffffffffffffffffffffffff82169050919050565b6000819050919050565b82818337600083830152505050565b60005b83811015612ef8578082015181840152602081019050612edd565b83811115612f07576000848401525b50505050565b60006002820490506001821680612f2557607f821691505b60208210811415612f3957612f38613048565b5b50919050565b612f48826130a6565b810181811067ffffffffffffffff82111715612f6757612f66613077565b5b80604052505050565b6000612f7b82612ec1565b91507fffffffffffffffffffffffffffffffffffffffffffffffffffffffffffffffff821415612fae57612fad612fea565b5b600182019050919050565b6000612fc482612ec1565b9150612fcf83612ec1565b925082612fdf57612fde613019565b5b828206905092915050565b7f4e487b7100000000000000000000000000000000000000000000000000000000600052601160045260246000fd5b7f4e487b7100000000000000000000000000000000000000000000000000000000600052601260045260246000fd5b7f4e487b7100000000000000000000000000000000000000000000000000000000600052602260045260246000fd5b7f4e487b7100000000000000000000000000000000000000000000000000000000600052604160045260246000fd5b6000601f19601f8301169050919050565b7f455243373231456e756d657261626c653a206f776e657220696e646578206f7560008201527f74206f6620626f756e6473000000000000000000000000000000000000000000602082015250565b7f4552433732313a207472616e7366657220746f206e6f6e20455243373231526560008201527f63656976657220696d706c656d656e7465720000000000000000000000000000602082015250565b7f4552433732313a20746f6b656e20616c7265616479206d696e74656400000000600082015250565b7f4552433732313a207472616e7366657220746f20746865207a65726f2061646460008201527f7265737300000000000000000000000000000000000000000000000000000000602082015250565b7f4552433732313a20617070726f766520746f2063616c6c657200000000000000600082015250565b7f4552433732313a206f70657261746f7220717565727920666f72206e6f6e657860008201527f697374656e7420746f6b656e0000000000000000000000000000000000000000602082015250565b7f4552433732313a20617070726f76652063616c6c6572206973206e6f74206f7760008201527f6e6572206e6f7220617070726f76656420666f7220616c6c0000000000000000602082015250565b7f4552433732313a2062616c616e636520717565727920666f7220746865207a6560008201527f726f206164647265737300000000000000000000000000000000000000000000602082015250565b7f4552433732313a206f776e657220717565727920666f72206e6f6e657869737460008201527f656e7420746f6b656e0000000000000000000000000000000000000000000000602082015250565b7f45524337323155524953746f726167653a2055524920736574206f66206e6f6e60008201527f6578697374656e7420746f6b656e000000000000000000000000000000000000602082015250565b7f4552433732313a206d696e7420746f20746865207a65726f2061646472657373600082015250565b7f45524337323155524953746f726167653a2055524920717565727920666f722060008201527f6e6f6e6578697374656e7420746f6b656e000000000000000000000000000000602082015250565b7f4552433732313a20617070726f76656420717565727920666f72206e6f6e657860008201527f697374656e7420746f6b656e0000000000000000000000000000000000000000602082015250565b7f4552433732313a207472616e73666572206f6620746f6b656e2074686174206960008201527f73206e6f74206f776e0000000000000000000000000000000000000000000000602082015250565b7f4552433732314d657461646174613a2055524920717565727920666f72206e6f60008201527f6e6578697374656e7420746f6b656e0000000000000000000000000000000000602082015250565b7f4552433732313a20617070726f76616c20746f2063757272656e74206f776e6560008201527f7200000000000000000000000000000000000000000000000000000000000000602082015250565b7f4552433732313a207472616e736665722063616c6c6572206973206e6f74206f60008201527f776e6572206e6f7220617070726f766564000000000000000000000000000000602082015250565b7f455243373231456e756d657261626c653a20676c6f62616c20696e646578206f60008201527f7574206f6620626f756e64730000000000000000000000000000000000000000602082015250565b6135dc81612e57565b81146135e757600080fd5b50565b6135f381612e69565b81146135fe57600080fd5b50565b61360a81612e75565b811461361557600080fd5b50565b61362181612ec1565b811461362c57600080fd5b5056fea26469706673582212207f005299595be31897527822248eddf16eae704a871e16f44ee8cccbafc86cfc64736f6c63430008040033",
  "immutableReferences": {},
  "source": "// SPDX-License-Identifier: MIT\npragma solidity ^0.8.2;\n\nimport \"@openzeppelin/contracts/token/ERC721/extensions/ERC721URIStorage.sol\";\nimport \"@openzeppelin/contracts/token/ERC721/extensions/ERC721Enumerable.sol\";\n\n\ncontract Arcade_1 is ERC721URIStorage, ERC721Enumerable {\n    string baseURI;\n    constructor() ERC721(\"Arcade_1\", \"ARCADE\") {}\n\n    function _beforeTokenTransfer(address from, address to, uint256 tokenId)\n        internal\n        override(ERC721, ERC721Enumerable)\n    {\n        super._beforeTokenTransfer(from, to, tokenId);\n    }\n\n    function _burn(uint256 tokenId) \n        internal \n        override(ERC721, ERC721URIStorage) \n    {\n        super._burn(tokenId);\n    }\n\n    function tokenURI(uint256 tokenId)\n        public\n        view\n        override(ERC721, ERC721URIStorage)\n        returns (string memory)\n    {\n        return super.tokenURI(tokenId);\n    }\n\n    function supportsInterface(bytes4 interfaceId)\n        public\n        view\n        override(ERC721, ERC721Enumerable)\n        returns (bool)\n    {\n        return super.supportsInterface(interfaceId);\n    }\n\n    function _baseURI() \n        internal \n        view \n        override \n        returns (string memory) \n    {\n        return baseURI;\n    }\n\n    function mint(\n        address account,\n        uint256 tokenId\n    ) external {\n        _mint(account, tokenId);\n    }\n    \n    function setTokenURI(\n        uint256 tokenId, \n        string memory inputTokenURI\n    ) external {\n        _setTokenURI(tokenId, inputTokenURI);\n    }\n    \n    function setBaseURI(string memory baseURI_) external {\n        baseURI = baseURI_;\n    }\n\n    function burn(uint256 tokenId) external {\n        _burn(tokenId);\n    }\n}",
  "sourcePath": "/Users/troycalandra/Dev/arcade_nft/contracts/Arcade_1.sol",
  "compiler": {
    "name": "solc",
    "version": "0.8.4+commit.c7e474f2.Emscripten.clang"
  },
  "schemaVersion": "3.4.1",
  "updatedAt": "2021-06-10T00:31:00.333Z",
  "devdoc": {
    "kind": "dev",
    "methods": {
      "approve(address,uint256)": {
        "details": "See {IERC721-approve}."
      },
      "balanceOf(address)": {
        "details": "See {IERC721-balanceOf}."
      },
      "getApproved(uint256)": {
        "details": "See {IERC721-getApproved}."
      },
      "isApprovedForAll(address,address)": {
        "details": "See {IERC721-isApprovedForAll}."
      },
      "name()": {
        "details": "See {IERC721Metadata-name}."
      },
      "ownerOf(uint256)": {
        "details": "See {IERC721-ownerOf}."
      },
      "safeTransferFrom(address,address,uint256)": {
        "details": "See {IERC721-safeTransferFrom}."
      },
      "safeTransferFrom(address,address,uint256,bytes)": {
        "details": "See {IERC721-safeTransferFrom}."
      },
      "setApprovalForAll(address,bool)": {
        "details": "See {IERC721-setApprovalForAll}."
      },
      "symbol()": {
        "details": "See {IERC721Metadata-symbol}."
      },
      "tokenByIndex(uint256)": {
        "details": "See {IERC721Enumerable-tokenByIndex}."
      },
      "tokenOfOwnerByIndex(address,uint256)": {
        "details": "See {IERC721Enumerable-tokenOfOwnerByIndex}."
      },
      "totalSupply()": {
        "details": "See {IERC721Enumerable-totalSupply}."
      },
      "transferFrom(address,address,uint256)": {
        "details": "See {IERC721-transferFrom}."
      }
    },
    "version": 1
  },
  "userdoc": {
    "kind": "user",
    "methods": {},
    "version": 1
  }
}