{
  "contractName": "Sales",
  "abi": [
    {
      "inputs": [
        {
          "internalType": "address",
          "name": "_nftAddress",
          "type": "address"
        },
        {
          "internalType": "uint256",
          "name": "_currentPrice",
          "type": "uint256"
        }
      ],
      "stateMutability": "nonpayable",
      "type": "constructor"
    },
    {
      "anonymous": false,
      "inputs": [
        {
          "indexed": true,
          "internalType": "address",
          "name": "previousOwner",
          "type": "address"
        },
        {
          "indexed": true,
          "internalType": "address",
          "name": "newOwner",
          "type": "address"
        }
      ],
      "name": "OwnershipTransferred",
      "type": "event"
    },
    {
      "anonymous": false,
      "inputs": [
        {
          "indexed": false,
          "internalType": "address",
          "name": "account",
          "type": "address"
        }
      ],
      "name": "Paused",
      "type": "event"
    },
    {
      "anonymous": false,
      "inputs": [
        {
          "indexed": true,
          "internalType": "address",
          "name": "payer",
          "type": "address"
        },
        {
          "indexed": false,
          "internalType": "uint256",
          "name": "tokenId",
          "type": "uint256"
        },
        {
          "indexed": false,
          "internalType": "uint256",
          "name": "amount",
          "type": "uint256"
        },
        {
          "indexed": false,
          "internalType": "uint256",
          "name": "balance",
          "type": "uint256"
        }
      ],
      "name": "Received",
      "type": "event"
    },
    {
      "anonymous": false,
      "inputs": [
        {
          "indexed": true,
          "internalType": "address",
          "name": "payee",
          "type": "address"
        },
        {
          "indexed": false,
          "internalType": "uint256",
          "name": "amount",
          "type": "uint256"
        },
        {
          "indexed": false,
          "internalType": "uint256",
          "name": "balance",
          "type": "uint256"
        }
      ],
      "name": "Sent",
      "type": "event"
    },
    {
      "anonymous": false,
      "inputs": [
        {
          "indexed": false,
          "internalType": "address",
          "name": "account",
          "type": "address"
        }
      ],
      "name": "Unpaused",
      "type": "event"
    },
    {
      "inputs": [],
      "name": "currentPrice",
      "outputs": [
        {
          "internalType": "uint256",
          "name": "",
          "type": "uint256"
        }
      ],
      "stateMutability": "view",
      "type": "function",
      "constant": true
    },
    {
      "inputs": [],
      "name": "nftAddress",
      "outputs": [
        {
          "internalType": "contract ERC721",
          "name": "",
          "type": "address"
        }
      ],
      "stateMutability": "view",
      "type": "function",
      "constant": true
    },
    {
      "inputs": [],
      "name": "owner",
      "outputs": [
        {
          "internalType": "address",
          "name": "",
          "type": "address"
        }
      ],
      "stateMutability": "view",
      "type": "function",
      "constant": true
    },
    {
      "inputs": [],
      "name": "paused",
      "outputs": [
        {
          "internalType": "bool",
          "name": "",
          "type": "bool"
        }
      ],
      "stateMutability": "view",
      "type": "function",
      "constant": true
    },
    {
      "inputs": [],
      "name": "renounceOwnership",
      "outputs": [],
      "stateMutability": "nonpayable",
      "type": "function"
    },
    {
      "inputs": [
        {
          "internalType": "address",
          "name": "newOwner",
          "type": "address"
        }
      ],
      "name": "transferOwnership",
      "outputs": [],
      "stateMutability": "nonpayable",
      "type": "function"
    },
    {
      "inputs": [
        {
          "internalType": "uint256",
          "name": "_tokenId",
          "type": "uint256"
        }
      ],
      "name": "purchaseToken",
      "outputs": [],
      "stateMutability": "payable",
      "type": "function",
      "payable": true
    },
    {
      "inputs": [
        {
          "internalType": "address",
          "name": "_payee",
          "type": "address"
        },
        {
          "internalType": "uint256",
          "name": "_amount",
          "type": "uint256"
        }
      ],
      "name": "sendTo",
      "outputs": [],
      "stateMutability": "payable",
      "type": "function",
      "payable": true
    },
    {
      "inputs": [
        {
          "internalType": "uint256",
          "name": "_currentPrice",
          "type": "uint256"
        }
      ],
      "name": "setCurrentPrice",
      "outputs": [],
      "stateMutability": "nonpayable",
      "type": "function"
    }
  ],
  "bytecode": "0x60806040523480156200001157600080fd5b506040516200105a3803806200105a833981810160405281019062000037919062000209565b600062000049620001d360201b60201c565b9050806000806101000a81548173ffffffffffffffffffffffffffffffffffffffff021916908373ffffffffffffffffffffffffffffffffffffffff1602179055508073ffffffffffffffffffffffffffffffffffffffff16600073ffffffffffffffffffffffffffffffffffffffff167f8be0079c531659141344cd1fd0a4f28419497f9722a3daafe3b4186f6b6457e060405160405180910390a35060008060146101000a81548160ff021916908315150217905550600073ffffffffffffffffffffffffffffffffffffffff168273ffffffffffffffffffffffffffffffffffffffff16141580156200016b57503073ffffffffffffffffffffffffffffffffffffffff168273ffffffffffffffffffffffffffffffffffffffff1614155b6200017557600080fd5b600081116200018357600080fd5b81600160006101000a81548173ffffffffffffffffffffffffffffffffffffffff021916908373ffffffffffffffffffffffffffffffffffffffff160217905550806002819055505050620002bc565b600033905090565b600081519050620001ec8162000288565b92915050565b6000815190506200020381620002a2565b92915050565b600080604083850312156200021d57600080fd5b60006200022d85828601620001db565b92505060206200024085828601620001f2565b9150509250929050565b600062000257826200025e565b9050919050565b600073ffffffffffffffffffffffffffffffffffffffff82169050919050565b6000819050919050565b62000293816200024a565b81146200029f57600080fd5b50565b620002ad816200027e565b8114620002b957600080fd5b50565b610d8e80620002cc6000396000f3fe6080604052600436106100865760003560e01c80638da5cb5b116100595780638da5cb5b146101215780639d1b464a1461014c5780639e1a00aa14610177578063c2db2c4214610193578063f2fde38b146101af57610086565b806318b200711461008b5780635bf8633a146100b45780635c975abb146100df578063715018a61461010a575b600080fd5b34801561009757600080fd5b506100b260048036038101906100ad9190610a47565b6101d8565b005b3480156100c057600080fd5b506100c961026b565b6040516100d69190610b5f565b60405180910390f35b3480156100eb57600080fd5b506100f4610291565b6040516101019190610b44565b60405180910390f35b34801561011657600080fd5b5061011f6102a7565b005b34801561012d57600080fd5b506101366103e1565b6040516101439190610af2565b60405180910390f35b34801561015857600080fd5b5061016161040a565b60405161016e9190610bba565b60405180910390f35b610191600480360381019061018c9190610a0b565b610410565b005b6101ad60048036038101906101a89190610a47565b6105b2565b005b3480156101bb57600080fd5b506101d660048036038101906101d191906109b9565b6107c9565b005b6101e0610972565b73ffffffffffffffffffffffffffffffffffffffff166101fe6103e1565b73ffffffffffffffffffffffffffffffffffffffff1614610254576040517f08c379a000000000000000000000000000000000000000000000000000000000815260040161024b90610b9a565b60405180910390fd5b6000811161026157600080fd5b8060028190555050565b600160009054906101000a900473ffffffffffffffffffffffffffffffffffffffff1681565b60008060149054906101000a900460ff16905090565b6102af610972565b73ffffffffffffffffffffffffffffffffffffffff166102cd6103e1565b73ffffffffffffffffffffffffffffffffffffffff1614610323576040517f08c379a000000000000000000000000000000000000000000000000000000000815260040161031a90610b9a565b60405180910390fd5b600073ffffffffffffffffffffffffffffffffffffffff1660008054906101000a900473ffffffffffffffffffffffffffffffffffffffff1673ffffffffffffffffffffffffffffffffffffffff167f8be0079c531659141344cd1fd0a4f28419497f9722a3daafe3b4186f6b6457e060405160405180910390a360008060006101000a81548173ffffffffffffffffffffffffffffffffffffffff021916908373ffffffffffffffffffffffffffffffffffffffff160217905550565b60008060009054906101000a900473ffffffffffffffffffffffffffffffffffffffff16905090565b60025481565b610418610972565b73ffffffffffffffffffffffffffffffffffffffff166104366103e1565b73ffffffffffffffffffffffffffffffffffffffff161461048c576040517f08c379a000000000000000000000000000000000000000000000000000000000815260040161048390610b9a565b60405180910390fd5b600073ffffffffffffffffffffffffffffffffffffffff168273ffffffffffffffffffffffffffffffffffffffff16141580156104f557503073ffffffffffffffffffffffffffffffffffffffff168273ffffffffffffffffffffffffffffffffffffffff1614155b6104fe57600080fd5b60008111801561050e5750478111155b61051757600080fd5b8173ffffffffffffffffffffffffffffffffffffffff166108fc829081150290604051600060405180830381858888f1935050505015801561055d573d6000803e3d6000fd5b508173ffffffffffffffffffffffffffffffffffffffff167f6356739d963da01dc3533acba7203430fcc14f2175d48a8dd0973d7db49c785e82476040516105a6929190610bd5565b60405180910390a25050565b600073ffffffffffffffffffffffffffffffffffffffff163373ffffffffffffffffffffffffffffffffffffffff161415801561061b57503073ffffffffffffffffffffffffffffffffffffffff163373ffffffffffffffffffffffffffffffffffffffff1614155b61062457600080fd5b60025434101561063357600080fd5b6000600160009054906101000a900473ffffffffffffffffffffffffffffffffffffffff1673ffffffffffffffffffffffffffffffffffffffff16636352211e836040518263ffffffff1660e01b81526004016106909190610bba565b60206040518083038186803b1580156106a857600080fd5b505afa1580156106bc573d6000803e3d6000fd5b505050506040513d601f19601f820116820180604052508101906106e091906109e2565b9050600160009054906101000a900473ffffffffffffffffffffffffffffffffffffffff1673ffffffffffffffffffffffffffffffffffffffff166342842e0e8233856040518463ffffffff1660e01b815260040161074193929190610b0d565b600060405180830381600087803b15801561075b57600080fd5b505af115801561076f573d6000803e3d6000fd5b505050503373ffffffffffffffffffffffffffffffffffffffff167f02d08db2db312fc60b41a046c46a7772a6c2dcdca0c32a9d3423c6dcbde693e98334476040516107bd93929190610bfe565b60405180910390a25050565b6107d1610972565b73ffffffffffffffffffffffffffffffffffffffff166107ef6103e1565b73ffffffffffffffffffffffffffffffffffffffff1614610845576040517f08c379a000000000000000000000000000000000000000000000000000000000815260040161083c90610b9a565b60405180910390fd5b600073ffffffffffffffffffffffffffffffffffffffff168173ffffffffffffffffffffffffffffffffffffffff1614156108b5576040517f08c379a00000000000000000000000000000000000000000000000000000000081526004016108ac90610b7a565b60405180910390fd5b8073ffffffffffffffffffffffffffffffffffffffff1660008054906101000a900473ffffffffffffffffffffffffffffffffffffffff1673ffffffffffffffffffffffffffffffffffffffff167f8be0079c531659141344cd1fd0a4f28419497f9722a3daafe3b4186f6b6457e060405160405180910390a3806000806101000a81548173ffffffffffffffffffffffffffffffffffffffff021916908373ffffffffffffffffffffffffffffffffffffffff16021790555050565b600033905090565b60008135905061098981610d2a565b92915050565b60008151905061099e81610d2a565b92915050565b6000813590506109b381610d41565b92915050565b6000602082840312156109cb57600080fd5b60006109d98482850161097a565b91505092915050565b6000602082840312156109f457600080fd5b6000610a028482850161098f565b91505092915050565b60008060408385031215610a1e57600080fd5b6000610a2c8582860161097a565b9250506020610a3d858286016109a4565b9150509250929050565b600060208284031215610a5957600080fd5b6000610a67848285016109a4565b91505092915050565b610a7981610c46565b82525050565b610a8881610c58565b82525050565b610a9781610c8e565b82525050565b6000610aaa602683610c35565b9150610ab582610cb2565b604082019050919050565b6000610acd602083610c35565b9150610ad882610d01565b602082019050919050565b610aec81610c84565b82525050565b6000602082019050610b076000830184610a70565b92915050565b6000606082019050610b226000830186610a70565b610b2f6020830185610a70565b610b3c6040830184610ae3565b949350505050565b6000602082019050610b596000830184610a7f565b92915050565b6000602082019050610b746000830184610a8e565b92915050565b60006020820190508181036000830152610b9381610a9d565b9050919050565b60006020820190508181036000830152610bb381610ac0565b9050919050565b6000602082019050610bcf6000830184610ae3565b92915050565b6000604082019050610bea6000830185610ae3565b610bf76020830184610ae3565b9392505050565b6000606082019050610c136000830186610ae3565b610c206020830185610ae3565b610c2d6040830184610ae3565b949350505050565b600082825260208201905092915050565b6000610c5182610c64565b9050919050565b60008115159050919050565b600073ffffffffffffffffffffffffffffffffffffffff82169050919050565b6000819050919050565b6000610c9982610ca0565b9050919050565b6000610cab82610c64565b9050919050565b7f4f776e61626c653a206e6577206f776e657220697320746865207a65726f206160008201527f6464726573730000000000000000000000000000000000000000000000000000602082015250565b7f4f776e61626c653a2063616c6c6572206973206e6f7420746865206f776e6572600082015250565b610d3381610c46565b8114610d3e57600080fd5b50565b610d4a81610c84565b8114610d5557600080fd5b5056fea2646970667358221220135a74478859f9c2b9e722230a1a7880e93c3503b0af5635945c045d131ff8ee64736f6c63430008040033",
  "immutableReferences": {},
  "source": "// SPDX-License-Identifier: MIT\npragma solidity ^0.8.4;\n\nimport \"@openzeppelin/contracts/token/ERC721/extensions/ERC721Enumerable.sol\";\nimport \"@openzeppelin/contracts/access/Ownable.sol\";\nimport \"@openzeppelin/contracts/security/Pausable.sol\";\n\n\n/**\n * @title CryptoArteSales\n * CryptoArteSales - a sales contract for CryptoArte non-fungible tokens \n * corresponding to paintings from the www.cryptoarte.io collection\n */\ncontract Sales is Ownable, Pausable {\n\n    event Sent(address indexed payee, uint256 amount, uint256 balance);\n    event Received(address indexed payer, uint tokenId, uint256 amount, uint256 balance);\n\n    ERC721 public nftAddress;\n    uint256 public currentPrice;\n\n    /**\n    * @dev Contract Constructor\n    * @param _nftAddress address for Crypto Arte non-fungible token contract \n    * @param _currentPrice initial sales price\n    */\n    constructor(address _nftAddress, uint256 _currentPrice) { \n        require(_nftAddress != address(0) && _nftAddress != address(this));\n        require(_currentPrice > 0);\n        nftAddress = ERC721(_nftAddress);\n        currentPrice = _currentPrice;\n    }\n\n    /**\n    * @dev Purchase _tokenId\n    * @param _tokenId uint256 token ID (painting number)\n    */\n    function purchaseToken(uint256 _tokenId) public payable {\n        require(msg.sender != address(0) && msg.sender != address(this));\n        require(msg.value >= currentPrice);\n        address tokenSeller = nftAddress.ownerOf(_tokenId);\n        nftAddress.safeTransferFrom(tokenSeller, msg.sender, _tokenId);\n        emit Received(msg.sender, _tokenId, msg.value, address(this).balance);\n    }\n\n    /**\n    * @dev send / withdraw _amount to _payee\n    */\n    function sendTo(address _payee, uint256 _amount) public payable onlyOwner {\n        require(_payee != address(0) && _payee != address(this));\n        require(_amount > 0 && _amount <= address(this).balance);\n        payable(_payee).transfer(_amount);\n        emit Sent(_payee, _amount, address(this).balance);\n    }    \n\n    /**\n    * @dev Updates _currentPrice\n    * @dev Throws if _currentPrice is zero\n    */\n    function setCurrentPrice(uint256 _currentPrice) public onlyOwner {\n        require(_currentPrice > 0);\n        currentPrice = _currentPrice;\n    }        \n\n}",
  "sourcePath": "/Users/troycalandra/Dev/arcade_nft/contracts/Sales.sol",
  "compiler": {
    "name": "solc",
    "version": "0.8.4+commit.c7e474f2.Emscripten.clang"
  },
  "schemaVersion": "3.4.1",
  "updatedAt": "2021-06-20T01:42:29.889Z",
  "networkType": "ethereum",
  "devdoc": {
    "kind": "dev",
    "methods": {
      "constructor": {
        "details": "Contract Constructor",
        "params": {
          "_currentPrice": "initial sales price",
          "_nftAddress": "address for Crypto Arte non-fungible token contract "
        }
      },
      "owner()": {
        "details": "Returns the address of the current owner."
      },
      "paused()": {
        "details": "Returns true if the contract is paused, and false otherwise."
      },
      "purchaseToken(uint256)": {
        "details": "Purchase _tokenId",
        "params": {
          "_tokenId": "uint256 token ID (painting number)"
        }
      },
      "renounceOwnership()": {
        "details": "Leaves the contract without owner. It will not be possible to call `onlyOwner` functions anymore. Can only be called by the current owner. NOTE: Renouncing ownership will leave the contract without an owner, thereby removing any functionality that is only available to the owner."
      },
      "sendTo(address,uint256)": {
        "details": "send / withdraw _amount to _payee"
      },
      "setCurrentPrice(uint256)": {
        "details": "Updates _currentPriceThrows if _currentPrice is zero"
      },
      "transferOwnership(address)": {
        "details": "Transfers ownership of the contract to a new account (`newOwner`). Can only be called by the current owner."
      }
    },
    "title": "CryptoArteSales CryptoArteSales - a sales contract for CryptoArte non-fungible tokens  corresponding to paintings from the www.cryptoarte.io collection",
    "version": 1
  },
  "userdoc": {
    "kind": "user",
    "methods": {},
    "version": 1
  }
}